{
  "_format": "hh-sol-artifact-1",
  "contractName": "RandomGopher",
  "sourceName": "contracts/RandomGopher.sol",
  "abi": [
    {
      "inputs": [
        {
          "internalType": "address payable",
          "name": "_treasury",
          "type": "address"
        }
      ],
      "stateMutability": "nonpayable",
      "type": "constructor"
    },
    {
      "anonymous": false,
      "inputs": [
        {
          "indexed": true,
          "internalType": "address",
          "name": "owner",
          "type": "address"
        },
        {
          "indexed": true,
          "internalType": "address",
          "name": "approved",
          "type": "address"
        },
        {
          "indexed": true,
          "internalType": "uint256",
          "name": "tokenId",
          "type": "uint256"
        }
      ],
      "name": "Approval",
      "type": "event"
    },
    {
      "anonymous": false,
      "inputs": [
        {
          "indexed": true,
          "internalType": "address",
          "name": "owner",
          "type": "address"
        },
        {
          "indexed": true,
          "internalType": "address",
          "name": "operator",
          "type": "address"
        },
        {
          "indexed": false,
          "internalType": "bool",
          "name": "approved",
          "type": "bool"
        }
      ],
      "name": "ApprovalForAll",
      "type": "event"
    },
    {
      "anonymous": false,
      "inputs": [
        {
          "indexed": true,
          "internalType": "address",
          "name": "previousOwner",
          "type": "address"
        },
        {
          "indexed": true,
          "internalType": "address",
          "name": "newOwner",
          "type": "address"
        }
      ],
      "name": "OwnershipTransferred",
      "type": "event"
    },
    {
      "anonymous": false,
      "inputs": [
        {
          "indexed": true,
          "internalType": "address",
          "name": "from",
          "type": "address"
        },
        {
          "indexed": true,
          "internalType": "address",
          "name": "to",
          "type": "address"
        },
        {
          "indexed": true,
          "internalType": "uint256",
          "name": "tokenId",
          "type": "uint256"
        }
      ],
      "name": "Transfer",
      "type": "event"
    },
    {
      "inputs": [
        {
          "internalType": "address",
          "name": "to",
          "type": "address"
        },
        {
          "internalType": "uint256",
          "name": "tokenId",
          "type": "uint256"
        }
      ],
      "name": "approve",
      "outputs": [],
      "stateMutability": "nonpayable",
      "type": "function"
    },
    {
      "inputs": [
        {
          "internalType": "address",
          "name": "owner",
          "type": "address"
        }
      ],
      "name": "balanceOf",
      "outputs": [
        {
          "internalType": "uint256",
          "name": "",
          "type": "uint256"
        }
      ],
      "stateMutability": "view",
      "type": "function"
    },
    {
      "inputs": [
        {
          "internalType": "uint256",
          "name": "tokenId",
          "type": "uint256"
        }
      ],
      "name": "getApproved",
      "outputs": [
        {
          "internalType": "address",
          "name": "",
          "type": "address"
        }
      ],
      "stateMutability": "view",
      "type": "function"
    },
    {
      "inputs": [
        {
          "internalType": "address",
          "name": "owner",
          "type": "address"
        },
        {
          "internalType": "address",
          "name": "operator",
          "type": "address"
        }
      ],
      "name": "isApprovedForAll",
      "outputs": [
        {
          "internalType": "bool",
          "name": "",
          "type": "bool"
        }
      ],
      "stateMutability": "view",
      "type": "function"
    },
    {
      "inputs": [],
      "name": "name",
      "outputs": [
        {
          "internalType": "string",
          "name": "",
          "type": "string"
        }
      ],
      "stateMutability": "view",
      "type": "function"
    },
    {
      "inputs": [],
      "name": "owner",
      "outputs": [
        {
          "internalType": "address",
          "name": "",
          "type": "address"
        }
      ],
      "stateMutability": "view",
      "type": "function"
    },
    {
      "inputs": [
        {
          "internalType": "uint256",
          "name": "tokenId",
          "type": "uint256"
        }
      ],
      "name": "ownerOf",
      "outputs": [
        {
          "internalType": "address",
          "name": "",
          "type": "address"
        }
      ],
      "stateMutability": "view",
      "type": "function"
    },
    {
      "inputs": [],
      "name": "renounceOwnership",
      "outputs": [],
      "stateMutability": "nonpayable",
      "type": "function"
    },
    {
      "inputs": [],
      "name": "safeMint",
      "outputs": [],
      "stateMutability": "payable",
      "type": "function"
    },
    {
      "inputs": [
        {
          "internalType": "address",
          "name": "from",
          "type": "address"
        },
        {
          "internalType": "address",
          "name": "to",
          "type": "address"
        },
        {
          "internalType": "uint256",
          "name": "tokenId",
          "type": "uint256"
        }
      ],
      "name": "safeTransferFrom",
      "outputs": [],
      "stateMutability": "nonpayable",
      "type": "function"
    },
    {
      "inputs": [
        {
          "internalType": "address",
          "name": "from",
          "type": "address"
        },
        {
          "internalType": "address",
          "name": "to",
          "type": "address"
        },
        {
          "internalType": "uint256",
          "name": "tokenId",
          "type": "uint256"
        },
        {
          "internalType": "bytes",
          "name": "data",
          "type": "bytes"
        }
      ],
      "name": "safeTransferFrom",
      "outputs": [],
      "stateMutability": "nonpayable",
      "type": "function"
    },
    {
      "inputs": [
        {
          "internalType": "address",
          "name": "operator",
          "type": "address"
        },
        {
          "internalType": "bool",
          "name": "approved",
          "type": "bool"
        }
      ],
      "name": "setApprovalForAll",
      "outputs": [],
      "stateMutability": "nonpayable",
      "type": "function"
    },
    {
      "inputs": [
        {
          "internalType": "bytes4",
          "name": "interfaceId",
          "type": "bytes4"
        }
      ],
      "name": "supportsInterface",
      "outputs": [
        {
          "internalType": "bool",
          "name": "",
          "type": "bool"
        }
      ],
      "stateMutability": "view",
      "type": "function"
    },
    {
      "inputs": [],
      "name": "symbol",
      "outputs": [
        {
          "internalType": "string",
          "name": "",
          "type": "string"
        }
      ],
      "stateMutability": "view",
      "type": "function"
    },
    {
      "inputs": [
        {
          "internalType": "uint256",
          "name": "index",
          "type": "uint256"
        }
      ],
      "name": "tokenByIndex",
      "outputs": [
        {
          "internalType": "uint256",
          "name": "",
          "type": "uint256"
        }
      ],
      "stateMutability": "view",
      "type": "function"
    },
    {
      "inputs": [
        {
          "internalType": "uint256",
          "name": "",
          "type": "uint256"
        }
      ],
      "name": "tokenImageTypes",
      "outputs": [
        {
          "internalType": "uint256",
          "name": "",
          "type": "uint256"
        }
      ],
      "stateMutability": "view",
      "type": "function"
    },
    {
      "inputs": [
        {
          "internalType": "address",
          "name": "owner",
          "type": "address"
        },
        {
          "internalType": "uint256",
          "name": "index",
          "type": "uint256"
        }
      ],
      "name": "tokenOfOwnerByIndex",
      "outputs": [
        {
          "internalType": "uint256",
          "name": "",
          "type": "uint256"
        }
      ],
      "stateMutability": "view",
      "type": "function"
    },
    {
      "inputs": [
        {
          "internalType": "uint256",
          "name": "tokenId",
          "type": "uint256"
        }
      ],
      "name": "tokenURI",
      "outputs": [
        {
          "internalType": "string",
          "name": "",
          "type": "string"
        }
      ],
      "stateMutability": "view",
      "type": "function"
    },
    {
      "inputs": [],
      "name": "totalSupply",
      "outputs": [
        {
          "internalType": "uint256",
          "name": "",
          "type": "uint256"
        }
      ],
      "stateMutability": "view",
      "type": "function"
    },
    {
      "inputs": [
        {
          "internalType": "address",
          "name": "from",
          "type": "address"
        },
        {
          "internalType": "address",
          "name": "to",
          "type": "address"
        },
        {
          "internalType": "uint256",
          "name": "tokenId",
          "type": "uint256"
        }
      ],
      "name": "transferFrom",
      "outputs": [],
      "stateMutability": "nonpayable",
      "type": "function"
    },
    {
      "inputs": [
        {
          "internalType": "address",
          "name": "newOwner",
          "type": "address"
        }
      ],
      "name": "transferOwnership",
      "outputs": [],
      "stateMutability": "nonpayable",
      "type": "function"
    }
  ],
  "bytecode": "0x6080604052662386f26fc10000600d553480156200001c57600080fd5b5060405162003c8338038062003c83833981810160405281019062000042919062000274565b6040518060400160405280600c81526020017f52616e646f6d476f7068657200000000000000000000000000000000000000008152506040518060400160405280600281526020017f52470000000000000000000000000000000000000000000000000000000000008152508160009081620000bf919062000520565b508060019081620000d1919062000520565b505050620000f4620000e86200013c60201b60201c565b6200014460201b60201c565b80600e60006101000a81548173ffffffffffffffffffffffffffffffffffffffff021916908373ffffffffffffffffffffffffffffffffffffffff1602179055505062000607565b600033905090565b6000600b60009054906101000a900473ffffffffffffffffffffffffffffffffffffffff16905081600b60006101000a81548173ffffffffffffffffffffffffffffffffffffffff021916908373ffffffffffffffffffffffffffffffffffffffff1602179055508173ffffffffffffffffffffffffffffffffffffffff168173ffffffffffffffffffffffffffffffffffffffff167f8be0079c531659141344cd1fd0a4f28419497f9722a3daafe3b4186f6b6457e060405160405180910390a35050565b600080fd5b600073ffffffffffffffffffffffffffffffffffffffff82169050919050565b60006200023c826200020f565b9050919050565b6200024e816200022f565b81146200025a57600080fd5b50565b6000815190506200026e8162000243565b92915050565b6000602082840312156200028d576200028c6200020a565b5b60006200029d848285016200025d565b91505092915050565b600081519050919050565b7f4e487b7100000000000000000000000000000000000000000000000000000000600052604160045260246000fd5b7f4e487b7100000000000000000000000000000000000000000000000000000000600052602260045260246000fd5b600060028204905060018216806200032857607f821691505b6020821081036200033e576200033d620002e0565b5b50919050565b60008190508160005260206000209050919050565b60006020601f8301049050919050565b600082821b905092915050565b600060088302620003a87fffffffffffffffffffffffffffffffffffffffffffffffffffffffffffffffff8262000369565b620003b4868362000369565b95508019841693508086168417925050509392505050565b6000819050919050565b6000819050919050565b600062000401620003fb620003f584620003cc565b620003d6565b620003cc565b9050919050565b6000819050919050565b6200041d83620003e0565b620004356200042c8262000408565b84845462000376565b825550505050565b600090565b6200044c6200043d565b6200045981848462000412565b505050565b5b8181101562000481576200047560008262000442565b6001810190506200045f565b5050565b601f821115620004d0576200049a8162000344565b620004a58462000359565b81016020851015620004b5578190505b620004cd620004c48562000359565b8301826200045e565b50505b505050565b600082821c905092915050565b6000620004f560001984600802620004d5565b1980831691505092915050565b6000620005108383620004e2565b9150826002028217905092915050565b6200052b82620002a6565b67ffffffffffffffff811115620005475762000546620002b1565b5b6200055382546200030f565b6200056082828562000485565b600060209050601f83116001811462000598576000841562000583578287015190505b6200058f858262000502565b865550620005ff565b601f198416620005a88662000344565b60005b82811015620005d257848901518255600182019150602085019450602081019050620005ab565b86831015620005f25784890151620005ee601f891682620004e2565b8355505b6001600288020188555050505b505050505050565b61366c80620006176000396000f3fe60806040526004361061012a5760003560e01c80636352211e116100ab57806395d89b411161006f57806395d89b41146103f7578063a22cb46514610422578063b88d4fde1461044b578063c87b56dd14610474578063e985e9c5146104b1578063f2fde38b146104ee5761012a565b80636352211e146103315780636871ee401461036e57806370a0823114610378578063715018a6146103b55780638da5cb5b146103cc5761012a565b806318160ddd116100f257806318160ddd1461023a57806323b872dd146102655780632f745c591461028e57806342842e0e146102cb5780634f6ccce7146102f45761012a565b806301ffc9a71461012f57806306fdde031461016c578063081812fc14610197578063095ea7b3146101d45780630d9a5d75146101fd575b600080fd5b34801561013b57600080fd5b5061015660048036038101906101519190612499565b610517565b60405161016391906124e1565b60405180910390f35b34801561017857600080fd5b50610181610529565b60405161018e919061258c565b60405180910390f35b3480156101a357600080fd5b506101be60048036038101906101b991906125e4565b6105bb565b6040516101cb9190612652565b60405180910390f35b3480156101e057600080fd5b506101fb60048036038101906101f69190612699565b610601565b005b34801561020957600080fd5b50610224600480360381019061021f91906125e4565b610718565b60405161023191906126e8565b60405180910390f35b34801561024657600080fd5b5061024f610730565b60405161025c91906126e8565b60405180910390f35b34801561027157600080fd5b5061028c60048036038101906102879190612703565b61073d565b005b34801561029a57600080fd5b506102b560048036038101906102b09190612699565b61079d565b6040516102c291906126e8565b60405180910390f35b3480156102d757600080fd5b506102f260048036038101906102ed9190612703565b610842565b005b34801561030057600080fd5b5061031b600480360381019061031691906125e4565b610862565b60405161032891906126e8565b60405180910390f35b34801561033d57600080fd5b50610358600480360381019061035391906125e4565b6108d3565b6040516103659190612652565b60405180910390f35b610376610959565b005b34801561038457600080fd5b5061039f600480360381019061039a9190612756565b610a21565b6040516103ac91906126e8565b60405180910390f35b3480156103c157600080fd5b506103ca610ad8565b005b3480156103d857600080fd5b506103e1610aec565b6040516103ee9190612652565b60405180910390f35b34801561040357600080fd5b5061040c610b16565b604051610419919061258c565b60405180910390f35b34801561042e57600080fd5b50610449600480360381019061044491906127af565b610ba8565b005b34801561045757600080fd5b50610472600480360381019061046d9190612924565b610bbe565b005b34801561048057600080fd5b5061049b600480360381019061049691906125e4565b610c20565b6040516104a8919061258c565b60405180910390f35b3480156104bd57600080fd5b506104d860048036038101906104d391906129a7565b610ca1565b6040516104e591906124e1565b60405180910390f35b3480156104fa57600080fd5b5061051560048036038101906105109190612756565b610d35565b005b600061052282610db8565b9050919050565b60606000805461053890612a16565b80601f016020809104026020016040519081016040528092919081815260200182805461056490612a16565b80156105b15780601f10610586576101008083540402835291602001916105b1565b820191906000526020600020905b81548152906001019060200180831161059457829003601f168201915b5050505050905090565b60006105c682610e32565b6004600083815260200190815260200160002060009054906101000a900473ffffffffffffffffffffffffffffffffffffffff169050919050565b600061060c826108d3565b90508073ffffffffffffffffffffffffffffffffffffffff168373ffffffffffffffffffffffffffffffffffffffff160361067c576040517f08c379a000000000000000000000000000000000000000000000000000000000815260040161067390612ab9565b60405180910390fd5b8073ffffffffffffffffffffffffffffffffffffffff1661069b610e7d565b73ffffffffffffffffffffffffffffffffffffffff1614806106ca57506106c9816106c4610e7d565b610ca1565b5b610709576040517f08c379a000000000000000000000000000000000000000000000000000000000815260040161070090612b4b565b60405180910390fd5b6107138383610e85565b505050565b600f6020528060005260406000206000915090505481565b6000600880549050905090565b61074e610748610e7d565b82610f3e565b61078d576040517f08c379a000000000000000000000000000000000000000000000000000000000815260040161078490612bdd565b60405180910390fd5b610798838383610fd3565b505050565b60006107a883610a21565b82106107e9576040517f08c379a00000000000000000000000000000000000000000000000000000000081526004016107e090612c6f565b60405180910390fd5b600660008473ffffffffffffffffffffffffffffffffffffffff1673ffffffffffffffffffffffffffffffffffffffff168152602001908152602001600020600083815260200190815260200160002054905092915050565b61085d83838360405180602001604052806000815250610bbe565b505050565b600061086c610730565b82106108ad576040517f08c379a00000000000000000000000000000000000000000000000000000000081526004016108a490612d01565b60405180910390fd5b600882815481106108c1576108c0612d21565b5b90600052602060002001549050919050565b6000806108df836112cc565b9050600073ffffffffffffffffffffffffffffffffffffffff168173ffffffffffffffffffffffffffffffffffffffff1603610950576040517f08c379a000000000000000000000000000000000000000000000000000000000815260040161094790612d9c565b60405180910390fd5b80915050919050565b600d5434101561096857600080fd5b600e60009054906101000a900473ffffffffffffffffffffffffffffffffffffffff1673ffffffffffffffffffffffffffffffffffffffff166108fc349081150290604051600060405180830381858888f193505050501580156109d0573d6000803e3d6000fd5b5060006109dd600c611309565b905060016109e9611317565b6109f39190612deb565b600f600083815260200190815260200160002081905550610a14600c61135b565b610a1e3382611371565b50565b60008073ffffffffffffffffffffffffffffffffffffffff168273ffffffffffffffffffffffffffffffffffffffff1603610a91576040517f08c379a0000000000000000000000000000000000000000000000000000000008152600401610a8890612e91565b60405180910390fd5b600360008373ffffffffffffffffffffffffffffffffffffffff1673ffffffffffffffffffffffffffffffffffffffff168152602001908152602001600020549050919050565b610ae061138f565b610aea600061140d565b565b6000600b60009054906101000a900473ffffffffffffffffffffffffffffffffffffffff16905090565b606060018054610b2590612a16565b80601f0160208091040260200160405190810160405280929190818152602001828054610b5190612a16565b8015610b9e5780601f10610b7357610100808354040283529160200191610b9e565b820191906000526020600020905b815481529060010190602001808311610b8157829003601f168201915b5050505050905090565b610bba610bb3610e7d565b83836114d3565b5050565b610bcf610bc9610e7d565b83610f3e565b610c0e576040517f08c379a0000000000000000000000000000000000000000000000000000000008152600401610c0590612bdd565b60405180910390fd5b610c1a8484848461163f565b50505050565b6060610c2b82610e32565b6000610c49600f60008581526020019081526020016000205461169b565b90506000610c55611769565b90506000815111610c755760405180602001604052806000815250610c98565b8082604051602001610c88929190612f39565b6040516020818303038152906040525b92505050919050565b6000600560008473ffffffffffffffffffffffffffffffffffffffff1673ffffffffffffffffffffffffffffffffffffffff16815260200190815260200160002060008373ffffffffffffffffffffffffffffffffffffffff1673ffffffffffffffffffffffffffffffffffffffff16815260200190815260200160002060009054906101000a900460ff16905092915050565b610d3d61138f565b600073ffffffffffffffffffffffffffffffffffffffff168173ffffffffffffffffffffffffffffffffffffffff1603610dac576040517f08c379a0000000000000000000000000000000000000000000000000000000008152600401610da390612fda565b60405180910390fd5b610db58161140d565b50565b60007f780e9d63000000000000000000000000000000000000000000000000000000007bffffffffffffffffffffffffffffffffffffffffffffffffffffffff1916827bffffffffffffffffffffffffffffffffffffffffffffffffffffffff19161480610e2b5750610e2a82611789565b5b9050919050565b610e3b8161186b565b610e7a576040517f08c379a0000000000000000000000000000000000000000000000000000000008152600401610e7190612d9c565b60405180910390fd5b50565b600033905090565b816004600083815260200190815260200160002060006101000a81548173ffffffffffffffffffffffffffffffffffffffff021916908373ffffffffffffffffffffffffffffffffffffffff160217905550808273ffffffffffffffffffffffffffffffffffffffff16610ef8836108d3565b73ffffffffffffffffffffffffffffffffffffffff167f8c5be1e5ebec7d5bd14f71427d1e84f3dd0314c0f7b2291e5b200ac8c7c3b92560405160405180910390a45050565b600080610f4a836108d3565b90508073ffffffffffffffffffffffffffffffffffffffff168473ffffffffffffffffffffffffffffffffffffffff161480610f8c5750610f8b8185610ca1565b5b80610fca57508373ffffffffffffffffffffffffffffffffffffffff16610fb2846105bb565b73ffffffffffffffffffffffffffffffffffffffff16145b91505092915050565b8273ffffffffffffffffffffffffffffffffffffffff16610ff3826108d3565b73ffffffffffffffffffffffffffffffffffffffff1614611049576040517f08c379a00000000000000000000000000000000000000000000000000000000081526004016110409061306c565b60405180910390fd5b600073ffffffffffffffffffffffffffffffffffffffff168273ffffffffffffffffffffffffffffffffffffffff16036110b8576040517f08c379a00000000000000000000000000000000000000000000000000000000081526004016110af906130fe565b60405180910390fd5b6110c583838360016118ac565b8273ffffffffffffffffffffffffffffffffffffffff166110e5826108d3565b73ffffffffffffffffffffffffffffffffffffffff161461113b576040517f08c379a00000000000000000000000000000000000000000000000000000000081526004016111329061306c565b60405180910390fd5b6004600082815260200190815260200160002060006101000a81549073ffffffffffffffffffffffffffffffffffffffff02191690556001600360008573ffffffffffffffffffffffffffffffffffffffff1673ffffffffffffffffffffffffffffffffffffffff168152602001908152602001600020600082825403925050819055506001600360008473ffffffffffffffffffffffffffffffffffffffff1673ffffffffffffffffffffffffffffffffffffffff16815260200190815260200160002060008282540192505081905550816002600083815260200190815260200160002060006101000a81548173ffffffffffffffffffffffffffffffffffffffff021916908373ffffffffffffffffffffffffffffffffffffffff160217905550808273ffffffffffffffffffffffffffffffffffffffff168473ffffffffffffffffffffffffffffffffffffffff167fddf252ad1be2c89b69c2b068fc378daa952ba7f163c4a11628f55a4df523b3ef60405160405180910390a46112c783838360016118be565b505050565b60006002600083815260200190815260200160002060009054906101000a900473ffffffffffffffffffffffffffffffffffffffff169050919050565b600081600001549050919050565b600080444260405160200161132d92919061313f565b6040516020818303038152906040528051906020012060001c9050600381611355919061319a565b91505090565b6001816000016000828254019250508190555050565b61138b8282604051806020016040528060008152506118c4565b5050565b611397610e7d565b73ffffffffffffffffffffffffffffffffffffffff166113b5610aec565b73ffffffffffffffffffffffffffffffffffffffff161461140b576040517f08c379a000000000000000000000000000000000000000000000000000000000815260040161140290613217565b60405180910390fd5b565b6000600b60009054906101000a900473ffffffffffffffffffffffffffffffffffffffff16905081600b60006101000a81548173ffffffffffffffffffffffffffffffffffffffff021916908373ffffffffffffffffffffffffffffffffffffffff1602179055508173ffffffffffffffffffffffffffffffffffffffff168173ffffffffffffffffffffffffffffffffffffffff167f8be0079c531659141344cd1fd0a4f28419497f9722a3daafe3b4186f6b6457e060405160405180910390a35050565b8173ffffffffffffffffffffffffffffffffffffffff168373ffffffffffffffffffffffffffffffffffffffff1603611541576040517f08c379a000000000000000000000000000000000000000000000000000000000815260040161153890613283565b60405180910390fd5b80600560008573ffffffffffffffffffffffffffffffffffffffff1673ffffffffffffffffffffffffffffffffffffffff16815260200190815260200160002060008473ffffffffffffffffffffffffffffffffffffffff1673ffffffffffffffffffffffffffffffffffffffff16815260200190815260200160002060006101000a81548160ff0219169083151502179055508173ffffffffffffffffffffffffffffffffffffffff168373ffffffffffffffffffffffffffffffffffffffff167f17307eab39ab6107e8899845ad3d59bd9653f200f220920489ca2b5937696c318360405161163291906124e1565b60405180910390a3505050565b61164a848484610fd3565b6116568484848461191f565b611695576040517f08c379a000000000000000000000000000000000000000000000000000000000815260040161168c90613315565b60405180910390fd5b50505050565b6060600060016116aa84611aa6565b01905060008167ffffffffffffffff8111156116c9576116c86127f9565b5b6040519080825280601f01601f1916602001820160405280156116fb5781602001600182028036833780820191505090505b509050600082602001820190505b60011561175e578080600190039150507f3031323334353637383961626364656600000000000000000000000000000000600a86061a8153600a85816117525761175161316b565b5b04945060008503611709575b819350505050919050565b60606040518060800160405280605181526020016135e660519139905090565b60007f80ac58cd000000000000000000000000000000000000000000000000000000007bffffffffffffffffffffffffffffffffffffffffffffffffffffffff1916827bffffffffffffffffffffffffffffffffffffffffffffffffffffffff1916148061185457507f5b5e139f000000000000000000000000000000000000000000000000000000007bffffffffffffffffffffffffffffffffffffffffffffffffffffffff1916827bffffffffffffffffffffffffffffffffffffffffffffffffffffffff1916145b80611864575061186382611bf9565b5b9050919050565b60008073ffffffffffffffffffffffffffffffffffffffff1661188d836112cc565b73ffffffffffffffffffffffffffffffffffffffff1614159050919050565b6118b884848484611c63565b50505050565b50505050565b6118ce8383611dc1565b6118db600084848461191f565b61191a576040517f08c379a000000000000000000000000000000000000000000000000000000000815260040161191190613315565b60405180910390fd5b505050565b60006119408473ffffffffffffffffffffffffffffffffffffffff16611fde565b15611a99578373ffffffffffffffffffffffffffffffffffffffff1663150b7a02611969610e7d565b8786866040518563ffffffff1660e01b815260040161198b949392919061338a565b6020604051808303816000875af19250505080156119c757506040513d601f19601f820116820180604052508101906119c491906133eb565b60015b611a49573d80600081146119f7576040519150601f19603f3d011682016040523d82523d6000602084013e6119fc565b606091505b506000815103611a41576040517f08c379a0000000000000000000000000000000000000000000000000000000008152600401611a3890613315565b60405180910390fd5b805181602001fd5b63150b7a0260e01b7bffffffffffffffffffffffffffffffffffffffffffffffffffffffff1916817bffffffffffffffffffffffffffffffffffffffffffffffffffffffff191614915050611a9e565b600190505b949350505050565b600080600090507a184f03e93ff9f4daa797ed6e38ed64bf6a1f0100000000000000008310611b04577a184f03e93ff9f4daa797ed6e38ed64bf6a1f0100000000000000008381611afa57611af961316b565b5b0492506040810190505b6d04ee2d6d415b85acef81000000008310611b41576d04ee2d6d415b85acef81000000008381611b3757611b3661316b565b5b0492506020810190505b662386f26fc100008310611b7057662386f26fc100008381611b6657611b6561316b565b5b0492506010810190505b6305f5e1008310611b99576305f5e1008381611b8f57611b8e61316b565b5b0492506008810190505b6127108310611bbe576127108381611bb457611bb361316b565b5b0492506004810190505b60648310611be15760648381611bd757611bd661316b565b5b0492506002810190505b600a8310611bf0576001810190505b80915050919050565b60007f01ffc9a7000000000000000000000000000000000000000000000000000000007bffffffffffffffffffffffffffffffffffffffffffffffffffffffff1916827bffffffffffffffffffffffffffffffffffffffffffffffffffffffff1916149050919050565b611c6f84848484612001565b6001811115611cb3576040517f08c379a0000000000000000000000000000000000000000000000000000000008152600401611caa9061348a565b60405180910390fd5b6000829050600073ffffffffffffffffffffffffffffffffffffffff168573ffffffffffffffffffffffffffffffffffffffff1603611cfa57611cf581612127565b611d39565b8373ffffffffffffffffffffffffffffffffffffffff168573ffffffffffffffffffffffffffffffffffffffff1614611d3857611d378582612170565b5b5b600073ffffffffffffffffffffffffffffffffffffffff168473ffffffffffffffffffffffffffffffffffffffff1603611d7b57611d76816122dd565b611dba565b8473ffffffffffffffffffffffffffffffffffffffff168473ffffffffffffffffffffffffffffffffffffffff1614611db957611db884826123ae565b5b5b5050505050565b600073ffffffffffffffffffffffffffffffffffffffff168273ffffffffffffffffffffffffffffffffffffffff1603611e30576040517f08c379a0000000000000000000000000000000000000000000000000000000008152600401611e27906134f6565b60405180910390fd5b611e398161186b565b15611e79576040517f08c379a0000000000000000000000000000000000000000000000000000000008152600401611e7090613562565b60405180910390fd5b611e876000838360016118ac565b611e908161186b565b15611ed0576040517f08c379a0000000000000000000000000000000000000000000000000000000008152600401611ec790613562565b60405180910390fd5b6001600360008473ffffffffffffffffffffffffffffffffffffffff1673ffffffffffffffffffffffffffffffffffffffff16815260200190815260200160002060008282540192505081905550816002600083815260200190815260200160002060006101000a81548173ffffffffffffffffffffffffffffffffffffffff021916908373ffffffffffffffffffffffffffffffffffffffff160217905550808273ffffffffffffffffffffffffffffffffffffffff16600073ffffffffffffffffffffffffffffffffffffffff167fddf252ad1be2c89b69c2b068fc378daa952ba7f163c4a11628f55a4df523b3ef60405160405180910390a4611fda6000838360016118be565b5050565b6000808273ffffffffffffffffffffffffffffffffffffffff163b119050919050565b600181111561212157600073ffffffffffffffffffffffffffffffffffffffff168473ffffffffffffffffffffffffffffffffffffffff16146120955780600360008673ffffffffffffffffffffffffffffffffffffffff1673ffffffffffffffffffffffffffffffffffffffff168152602001908152602001600020600082825461208d9190613582565b925050819055505b600073ffffffffffffffffffffffffffffffffffffffff168373ffffffffffffffffffffffffffffffffffffffff16146121205780600360008573ffffffffffffffffffffffffffffffffffffffff1673ffffffffffffffffffffffffffffffffffffffff16815260200190815260200160002060008282546121189190612deb565b925050819055505b5b50505050565b6008805490506009600083815260200190815260200160002081905550600881908060018154018082558091505060019003906000526020600020016000909190919091505550565b6000600161217d84610a21565b6121879190613582565b905060006007600084815260200190815260200160002054905081811461226c576000600660008673ffffffffffffffffffffffffffffffffffffffff1673ffffffffffffffffffffffffffffffffffffffff168152602001908152602001600020600084815260200190815260200160002054905080600660008773ffffffffffffffffffffffffffffffffffffffff1673ffffffffffffffffffffffffffffffffffffffff168152602001908152602001600020600084815260200190815260200160002081905550816007600083815260200190815260200160002081905550505b6007600084815260200190815260200160002060009055600660008573ffffffffffffffffffffffffffffffffffffffff1673ffffffffffffffffffffffffffffffffffffffff16815260200190815260200160002060008381526020019081526020016000206000905550505050565b600060016008805490506122f19190613582565b905060006009600084815260200190815260200160002054905060006008838154811061232157612320612d21565b5b90600052602060002001549050806008838154811061234357612342612d21565b5b906000526020600020018190555081600960008381526020019081526020016000208190555060096000858152602001908152602001600020600090556008805480612392576123916135b6565b5b6001900381819060005260206000200160009055905550505050565b60006123b983610a21565b905081600660008573ffffffffffffffffffffffffffffffffffffffff1673ffffffffffffffffffffffffffffffffffffffff168152602001908152602001600020600083815260200190815260200160002081905550806007600084815260200190815260200160002081905550505050565b6000604051905090565b600080fd5b600080fd5b60007fffffffff0000000000000000000000000000000000000000000000000000000082169050919050565b61247681612441565b811461248157600080fd5b50565b6000813590506124938161246d565b92915050565b6000602082840312156124af576124ae612437565b5b60006124bd84828501612484565b91505092915050565b60008115159050919050565b6124db816124c6565b82525050565b60006020820190506124f660008301846124d2565b92915050565b600081519050919050565b600082825260208201905092915050565b60005b8381101561253657808201518184015260208101905061251b565b60008484015250505050565b6000601f19601f8301169050919050565b600061255e826124fc565b6125688185612507565b9350612578818560208601612518565b61258181612542565b840191505092915050565b600060208201905081810360008301526125a68184612553565b905092915050565b6000819050919050565b6125c1816125ae565b81146125cc57600080fd5b50565b6000813590506125de816125b8565b92915050565b6000602082840312156125fa576125f9612437565b5b6000612608848285016125cf565b91505092915050565b600073ffffffffffffffffffffffffffffffffffffffff82169050919050565b600061263c82612611565b9050919050565b61264c81612631565b82525050565b60006020820190506126676000830184612643565b92915050565b61267681612631565b811461268157600080fd5b50565b6000813590506126938161266d565b92915050565b600080604083850312156126b0576126af612437565b5b60006126be85828601612684565b92505060206126cf858286016125cf565b9150509250929050565b6126e2816125ae565b82525050565b60006020820190506126fd60008301846126d9565b92915050565b60008060006060848603121561271c5761271b612437565b5b600061272a86828701612684565b935050602061273b86828701612684565b925050604061274c868287016125cf565b9150509250925092565b60006020828403121561276c5761276b612437565b5b600061277a84828501612684565b91505092915050565b61278c816124c6565b811461279757600080fd5b50565b6000813590506127a981612783565b92915050565b600080604083850312156127c6576127c5612437565b5b60006127d485828601612684565b92505060206127e58582860161279a565b9150509250929050565b600080fd5b600080fd5b7f4e487b7100000000000000000000000000000000000000000000000000000000600052604160045260246000fd5b61283182612542565b810181811067ffffffffffffffff821117156128505761284f6127f9565b5b80604052505050565b600061286361242d565b905061286f8282612828565b919050565b600067ffffffffffffffff82111561288f5761288e6127f9565b5b61289882612542565b9050602081019050919050565b82818337600083830152505050565b60006128c76128c284612874565b612859565b9050828152602081018484840111156128e3576128e26127f4565b5b6128ee8482856128a5565b509392505050565b600082601f83011261290b5761290a6127ef565b5b813561291b8482602086016128b4565b91505092915050565b6000806000806080858703121561293e5761293d612437565b5b600061294c87828801612684565b945050602061295d87828801612684565b935050604061296e878288016125cf565b925050606085013567ffffffffffffffff81111561298f5761298e61243c565b5b61299b878288016128f6565b91505092959194509250565b600080604083850312156129be576129bd612437565b5b60006129cc85828601612684565b92505060206129dd85828601612684565b9150509250929050565b7f4e487b7100000000000000000000000000000000000000000000000000000000600052602260045260246000fd5b60006002820490506001821680612a2e57607f821691505b602082108103612a4157612a406129e7565b5b50919050565b7f4552433732313a20617070726f76616c20746f2063757272656e74206f776e6560008201527f7200000000000000000000000000000000000000000000000000000000000000602082015250565b6000612aa3602183612507565b9150612aae82612a47565b604082019050919050565b60006020820190508181036000830152612ad281612a96565b9050919050565b7f4552433732313a20617070726f76652063616c6c6572206973206e6f7420746f60008201527f6b656e206f776e6572206f7220617070726f76656420666f7220616c6c000000602082015250565b6000612b35603d83612507565b9150612b4082612ad9565b604082019050919050565b60006020820190508181036000830152612b6481612b28565b9050919050565b7f4552433732313a2063616c6c6572206973206e6f7420746f6b656e206f776e6560008201527f72206f7220617070726f76656400000000000000000000000000000000000000602082015250565b6000612bc7602d83612507565b9150612bd282612b6b565b604082019050919050565b60006020820190508181036000830152612bf681612bba565b9050919050565b7f455243373231456e756d657261626c653a206f776e657220696e646578206f7560008201527f74206f6620626f756e6473000000000000000000000000000000000000000000602082015250565b6000612c59602b83612507565b9150612c6482612bfd565b604082019050919050565b60006020820190508181036000830152612c8881612c4c565b9050919050565b7f455243373231456e756d657261626c653a20676c6f62616c20696e646578206f60008201527f7574206f6620626f756e64730000000000000000000000000000000000000000602082015250565b6000612ceb602c83612507565b9150612cf682612c8f565b604082019050919050565b60006020820190508181036000830152612d1a81612cde565b9050919050565b7f4e487b7100000000000000000000000000000000000000000000000000000000600052603260045260246000fd5b7f4552433732313a20696e76616c696420746f6b656e2049440000000000000000600082015250565b6000612d86601883612507565b9150612d9182612d50565b602082019050919050565b60006020820190508181036000830152612db581612d79565b9050919050565b7f4e487b7100000000000000000000000000000000000000000000000000000000600052601160045260246000fd5b6000612df6826125ae565b9150612e01836125ae565b9250828201905080821115612e1957612e18612dbc565b5b92915050565b7f4552433732313a2061646472657373207a65726f206973206e6f74206120766160008201527f6c6964206f776e65720000000000000000000000000000000000000000000000602082015250565b6000612e7b602983612507565b9150612e8682612e1f565b604082019050919050565b60006020820190508181036000830152612eaa81612e6e565b9050919050565b600081905092915050565b6000612ec7826124fc565b612ed18185612eb1565b9350612ee1818560208601612518565b80840191505092915050565b7f2e706e6700000000000000000000000000000000000000000000000000000000600082015250565b6000612f23600483612eb1565b9150612f2e82612eed565b600482019050919050565b6000612f458285612ebc565b9150612f518284612ebc565b9150612f5c82612f16565b91508190509392505050565b7f4f776e61626c653a206e6577206f776e657220697320746865207a65726f206160008201527f6464726573730000000000000000000000000000000000000000000000000000602082015250565b6000612fc4602683612507565b9150612fcf82612f68565b604082019050919050565b60006020820190508181036000830152612ff381612fb7565b9050919050565b7f4552433732313a207472616e736665722066726f6d20696e636f72726563742060008201527f6f776e6572000000000000000000000000000000000000000000000000000000602082015250565b6000613056602583612507565b915061306182612ffa565b604082019050919050565b6000602082019050818103600083015261308581613049565b9050919050565b7f4552433732313a207472616e7366657220746f20746865207a65726f2061646460008201527f7265737300000000000000000000000000000000000000000000000000000000602082015250565b60006130e8602483612507565b91506130f38261308c565b604082019050919050565b60006020820190508181036000830152613117816130db565b9050919050565b6000819050919050565b613139613134826125ae565b61311e565b82525050565b600061314b8285613128565b60208201915061315b8284613128565b6020820191508190509392505050565b7f4e487b7100000000000000000000000000000000000000000000000000000000600052601260045260246000fd5b60006131a5826125ae565b91506131b0836125ae565b9250826131c0576131bf61316b565b5b828206905092915050565b7f4f776e61626c653a2063616c6c6572206973206e6f7420746865206f776e6572600082015250565b6000613201602083612507565b915061320c826131cb565b602082019050919050565b60006020820190508181036000830152613230816131f4565b9050919050565b7f4552433732313a20617070726f766520746f2063616c6c657200000000000000600082015250565b600061326d601983612507565b915061327882613237565b602082019050919050565b6000602082019050818103600083015261329c81613260565b9050919050565b7f4552433732313a207472616e7366657220746f206e6f6e20455243373231526560008201527f63656976657220696d706c656d656e7465720000000000000000000000000000602082015250565b60006132ff603283612507565b915061330a826132a3565b604082019050919050565b6000602082019050818103600083015261332e816132f2565b9050919050565b600081519050919050565b600082825260208201905092915050565b600061335c82613335565b6133668185613340565b9350613376818560208601612518565b61337f81612542565b840191505092915050565b600060808201905061339f6000830187612643565b6133ac6020830186612643565b6133b960408301856126d9565b81810360608301526133cb8184613351565b905095945050505050565b6000815190506133e58161246d565b92915050565b60006020828403121561340157613400612437565b5b600061340f848285016133d6565b91505092915050565b7f455243373231456e756d657261626c653a20636f6e736563757469766520747260008201527f616e7366657273206e6f7420737570706f727465640000000000000000000000602082015250565b6000613474603583612507565b915061347f82613418565b604082019050919050565b600060208201905081810360008301526134a381613467565b9050919050565b7f4552433732313a206d696e7420746f20746865207a65726f2061646472657373600082015250565b60006134e0602083612507565b91506134eb826134aa565b602082019050919050565b6000602082019050818103600083015261350f816134d3565b9050919050565b7f4552433732313a20746f6b656e20616c7265616479206d696e74656400000000600082015250565b600061354c601c83612507565b915061355782613516565b602082019050919050565b6000602082019050818103600083015261357b8161353f565b9050919050565b600061358d826125ae565b9150613598836125ae565b92508282039050818111156135b0576135af612dbc565b5b92915050565b7f4e487b7100000000000000000000000000000000000000000000000000000000600052603160045260246000fdfe68747470733a2f2f676174657761792e70696e6174612e636c6f75642f697066732f516d634b59456b4e586e44705a47664c6f33507679624a7762455470416379524c54544c7331686b6931444547642fa2646970667358221220849c73ec39ca2b1b8fc8a9c05b5211319fd5e811624f0869cc78de118fe8a35f64736f6c63430008110033",
  "linkReferences": {},
  "deployedLinkReferences": {}
}